:020000040800F2
:10000000A80D00209902000809460008E53E0008F6
:1000100005460008551F0008314A0008000000008E
:100020000000000000000000000000001146000871
:10003000591F0008000000000D4600081546000882
:10004000B3020008B3020008B3020008B3020008BC
:10005000B3020008B3020008B3020008B3020008AC
:10006000B3020008B3020008B3020008B30200089C
:10007000B3020008B3020008B3020008B30200088C
:10008000B3020008B3020008B3020008B30200087C
:10009000B3020008B3020008B3020008B30200086C
:1000A000B3020008B3020008B3020008B30200085C
:1000B000B3020008B3020008D1460008B3020008EA
:1000C000B3020008B3020008B3020008B30200083C
:1000D000B3020008254A0008B3020008B302000872
:1000E000B3020008B3020008B3020008B30200081C
:1000F000B3020008B3020008B3020008B30200080C
:10010000B3020008B3020008B3020008B3020008FB
:10011000B3020008B3020008B3020008B3020008EB
:10012000B3020008B3020008B3020008B3020008DB
:10013000B3020008B3020008B3020008B3020008CB
:10014000B3020008B3020008B3020008B3020008BB
:10015000B3020008B3020008B3020008B3020008AB
:10016000B3020008B3020008B3020008B30200089B
:10017000B3020008B3020008B30200080000000048
:10018000B3020008B302000800F002F800F075F8AE
:100190000AA090E8000C82448344AAF10107DA45E2
:1001A00001D100F06AF8AFF2090EBAE80F0013F0BF
:1001B000010F18BFFB1A43F001031847F872000043
:1001C000187300000A444FF0000C10F8013B13F0C4
:1001D000070408BF10F8014B1D1108BF10F8015BA0
:1001E000641E05D010F8016B641E01F8016BF9D193
:1001F00013F0080F1EBF10F8014BAD1C0C1B09D1EA
:100200006D1E58BF01F801CBFAD505E014F8016B5B
:1002100001F8016B6D1EF9D59142D6D370470000ED
:100220000023002400250026103A28BF78C1FBD8FF
:10023000520728BF30C148BF0B607047662906F0DF
:10024000E787642900F04481732900F03C86002090
:1002500070471FB506F0C7FF01F0FAF80400002050
:10026000002106F0EDFB401C60600020002106F03C
:10027000D1FBE0601FBD10B510BD01F0C3FB1146FE
:10028000FFF7E7FF04F068FC01F014FE03B4FFF78A
:10029000F2FF03BC01F056FE0948804709480047B9
:1002A000FEE7FEE7FEE7FEE7FEE7FEE7FEE7FEE726
:1002B000FEE7FEE704480549054A064B7047000083
:1002C000BD46000889010008A8070020A80D0020ED
:1002D000A8090020A809002053EA020C00F0698058
:1002E0002DE9F04B4FF00006002B1FBFB3FA83F54A
:1002F00003FA05F424FA05F65E4012BF1643B2FA7B
:1003000082F502FA05F4C5F120051EBF22FA05FCAC
:1003100044EA0C04203556EA044C4FEA144418BF52
:10032000641C4FF000084FF00009904271EB030C81
:1003300039D3002919BFB1FA81F701FA07F6B0FAEB
:1003400080F700FA07F6C7F120071EBF20FA07FC66
:1003500046EA0C062037B6FBF4FCA7EB0507103F76
:1003600007F01F0BCBF120062CFA06F60CFA0BFB5C
:1003700044BFB3460026202FA4BF5E464FF0000BBB
:100380005BEA060C08BF4FF0010B19EB0B0948EBB9
:100390000608ABFB027C06FB02CC0BFB03CCC01BAC
:1003A00071EB0C01C1E70B46024641464846BDE8E9
:1003B000F08B13B5084318BF4FF0FF300146AFF381
:1003C0000080BDE81C4070470FB41CB5074B06AA5F
:1003D0007B4469460090059800F043FD0020694683
:1003E00000F052FD1CBC5DF814FB0000B50A0000D3
:1003F0000FB41CB50C0007AA009007D04142A142DF
:1004000002D32044401E01E04FF0FF30074B7B44F5
:1004100069460190069800F024FD0020002C01D0D0
:10042000009908701CBC5DF814FB0000810A0000F4
:1004300070B5044685690068C10601D5302600E024
:100440002026C00707D070BDD4E90121304690476F
:10045000206A401C20626D1EF6D570BD70B5044642
:1004600085690078C00707D170BDD4E9012120203B
:100470009047206A401C20626D1EF6D570BD70B595
:100480000C460546012A05D02878800600D5EA6981
:10049000002302E0012305E05B1C934202D2E05CF2
:1004A0000028F9D1A869E618C01AA861286A18447A
:1004B00028622846FFF7BCFF04E0D5E9012114F8C3
:1004C000010B9047B442F8D32846FFF7C7FF70BD31
:1004D0002DE9F0410646002410687529314616A51D
:1004E00010D0AFF30080002802DA404213A507E0E5
:1004F00031688A0701D512A502E0490704D511A584
:10050000012401E0AFF3008000210A2206F1240754
:1005100009E0B0FBF2FCB0FBF2F302FB1C00303050
:1005200078541846491C0028F3D123462A46304601
:10053000BDE8F04100F029BA000000002D000000E5
:100540002B000000200000002DE9F05F89460446E2
:100550004FF0000ADFF824B1FB44C0F820A0204689
:10056000E168884700287DD0252806D0D4E90121FC
:100570009047206A401C2062F1E700255F46204634
:10058000E16888472028064607DB312E05D2B819D6
:1005900010F8200C08B10543F1E7A80701D525F0B4
:1005A0000405C4F81CA00027C4F818A02A2E09D0FE
:1005B000304606F0E2F938B304EB8708303EC8F85D
:1005C000186019E059F8041B204604EB870291617A
:1005D000E1688847012F064618D1E069002820DA33
:1005E00025F020051DE0D8F8180000EB800006EB90
:1005F00040003038C8F818002046E16888470646B1
:1006000006F0BBF90028EED1012F0AD02E2E08D11A
:100610002046E16888477F1C0646022F45F02005EA
:10062000C4DBA069002803DA404245F00105A0615F
:10063000E80701D025F01005A6B1A6F14100192860
:1006400002D8203645F400654A46314620462560EA
:100650004D46FFF7F3FD60B1012807D0ED1D25F0F1
:10066000070000E007E000F1080978E705F1040958
:1006700075E730467AE7206ABDE8F09FB46D000068
:100680000FB400B58DB010A9099000910B904FF0F8
:10069000FF300A9000200C900648784406900648E7
:1006A00078446A4607900F9909A800F0A1FE0DB0A2
:1006B0005DF814FB730D00008B0D00002DE9FF5F4A
:1006C0001D464FF0FF3B91464FF000085F46D5E9CD
:1006D0000146A96901987F1C8847296A8246884794
:1006E0000028F6D1BAF1FF3F0CD0002E24F4C064EC
:1006F00019DD600614D5BAF12B0F09D0BAF12D0F10
:100700000ED103E0584604B0BDE8F09F44F4806485
:10071000A96901987F1C8847761E8246002E02DD5B
:10072000BAF1300F03D0B9F1000F26D032E0A96939
:10073000761E01987F1C44F400748847002E824680
:1007400005DDBAF1780F06D0BAF1580F03D0B9F130
:10075000000F10D01EE0B9F1000F02D0B9F1100F58
:1007600018D1A969761E01987F1C24F4007488476B
:100770008246102002E0082000E00A20814609E0BD
:10078000A96908FB0908761E01987F1C44F40074CF
:1007900088478246002E05DD4946504600F097FB0B
:1007A0000028EDDAE96901988847A00502D46FF0C6
:1007B0000100A8E7E00725D1600613D5600502D542
:1007C000C8F1000000E0404629680A1D2A60096857
:1007D000220501D5087015E0220701D5088011E037
:1007E00008600FE02868011D29600068210502D516
:1007F00080F8008006E0210702D5A0F8008001E023
:10080000C0F8008038467EE72DE9FF5F4FF0000812
:100810009946144646469169D2E901A7DDF838B0F9
:1008200001988847054659EA0B0005D009E0A169FF
:100830000198761C88470546216A28468847002883
:10084000F5D1681C03D05FEACA7005D015E04FF0FF
:10085000FF3004B0BDE8F09F2068011D2160D0F892
:1008600000800AE05FEACA7001D108F8015BA16963
:10087000761C01987F1E88470546002F1ADD681CEC
:1008800018D0B9F1000F0DD0E81705EBD060421178
:1008900020F01F0059F822102A1A0120904001422E
:1008A000E0D107E0BBF1000FDCD12846216A884780
:1008B0000028D7D0E16901988847BBF1000F07D124
:1008C000002E05DD5FEACA7002D1002188F8001011
:1008D000A068B84203DDBBF1000F03D017B16FF081
:1008E0000100B6E73046B4E740EA0103024630B5FE
:1008F0009B0710D14FF0013400E008C208C91D1B4E
:100900009D4315EAC41FF8D013F0FF0102F8011B44
:100910000DD01B0AF8E711F8013B002B02F8013B50
:1009200005D011F8013B002B02F8013BF3D130BD9B
:1009300010B5431C02E010F8011B71B18107FAD118
:100940004FF0013202C88C1A8C4314EAC211F9D05C
:10095000C01A0A0603D0C01E10BDC01A10BD0A047A
:1009600001D0801E10BD0902FCD0401E10BD704792
:100970007047704710B500F06FFD006810BD10B5EE
:10098000044600F069FD046010BD2DE9F0470D46F6
:1009900099469246044600F124080168880604D569
:1009A000E06921F01001216000E00120A84201DD92
:1009B000471B00E00027A1697A1902EB0900081A19
:1009C000A0612078C00602D42046FFF731FD002642
:1009D00008E0D4E901211AF806009047206A401C7B
:1009E000761C20624E45F4DB2078C0060AD52046EE
:1009F000FFF71EFD06E0D4E9012130209047206A70
:100A0000401C2062381EA7F10107F4DC07E0D4E99E
:100A1000012118F805009047206A401C2062281E1A
:100A2000A5F10105F3DC2046FFF718FD207800064C
:100A300002D50220BDE8F0870120FBE72DE9FF4F3A
:100A40000C461E464FF0FF378BB0D2E90001DDF8AF
:100A500060800A908A46C1F30A5505B93D460021D7
:100A600008464FF00000BAF1000F00F4400005DA2C
:100A700000EB80004FF4400101EA50004FEA90592A
:100A8000B9F1010F00DDB9460A9850EA4A000ED0CC
:100A900044F61050A5F2FF3545432F14B8F1000F6E
:100AA0001ED07542291E1EDDC9F100021CE0B8F1FE
:100AB000010F4FF0000001D0302103E0F24305E0C8
:100AC0002154401CB042FBDB30460022002121545F
:100AD0000B99C1F80880C1E900200FB0BDE8F08F84
:100AE000BD1B6D1CDEE74A4600DA694206A800F02D
:100AF00013FF06AB93E8070003AB83E807005046FB
:100B00000A9905F0FFF88DE80700A0F500501F389E
:100B100000900398002D0ADD42F21F014A46084466
:100B2000002303A90390684605F0AAFB09E0A0F59D
:100B300000504A461F38002303A90390684605F079
:100B4000C9FB8DE807000004000C03D04FF0FF3014
:100B5000410800E01046B8F1000F03D000220092D7
:100B600015461EE0751E05D400F08DFC303262552E
:100B70006D1EF9D5B3460122084302D000227F1C26
:100B800004E02078302801D100227F1E002A099736
:100B900084D01DE0112D07DA00F075FC303262556B
:100BA0006D1C50EA0102F5D1084302D00098C8B18B
:100BB0000EE00021681E05E0235C625C6354225451
:100BC000401E491C8142F7DBAB46A81B401E099022
:100BD000002004F80B000B98099AC0F80880C0E9BF
:100BE000002B7AE711264FF0000857E72DE9F04F68
:100BF00088460446D21D22F0070191B0D1E90001D8
:100C0000CDE90A0105F0B2FC02460B98C00F01D0F5
:100C10002D2007E02068810701D52B2002E020214C
:100C200001EAC000032A099001D0072A05DB034628
:100C30004146204600F076FC0BE12078800601D585
:100C4000E06900E00620B8F1650F814606D0B8F1F2
:100C5000660F18D0B8F1670F70D131E00020B9F1FC
:100C6000110F009001DB112301E009F101030AAA31
:100C700001A90CA8FFF7E2FEDDE90C70002609F1DE
:100C80000105834647E001204B4600904FF00047A6
:100C90000AAA01A90CA8FFF7D1FEDDE90DB00C9955
:100CA0005D46002610B909F101000D18B9EB0500E9
:100CB00003D4C0F1FF3609F10105A5EB09002BE0D3
:100CC000B9F1010F01DA4FF001090020B9F1110F5C
:100CD0000090484601DD112300E003460AAA01A95D
:100CE0000CA8FFF7ABFEDDE90C704D4600268346ED
:100CF000207800070AD4AB4500DA5D4601A8012D33
:100D000004DD411911F8011C302907D04F4502DAE2
:100D100017F1040F04DA012082460FE06D1EEEE7A2
:100D2000002F02DCED1B3E4403E0781CA84200DDEE
:100D30007D1CB81B00F1010A4FF000472078000726
:100D400003D4AA4501DB4FF0FF3A0021B7F1004F71
:100D50000DF143088DF8431024D002202B23002FDF
:100D600001DA7F422D230A21021EA0F1010000DCDE
:100D70005FB197FBF1FC97FBF1F201FB1C7C17467E
:100D80000CF1300C08F801CDEEE7A8F1010003707A
:100D90002188090501D5452100E06521A0F1010860
:100DA00000F8011C09980FA9A1EB0807FF1D00B16D
:100DB0000120411901EBEA70A1693844081A401E6C
:100DC000A0612078C00602D42046FFF731FB0998C5
:100DD00028B1D4E901219047206A401C2062207884
:100DE000C00622D52046FFF723FB1EE0002E04DBC1
:100DF000B34502DD01A8805D00E03020D4E9012187
:100E00009047206A401C2062761CAAF101005FEA2C
:100E1000000A0AD100F01CFBC0680168405CD4E9FC
:100E200001219047206A401C2062281EA5F101057F
:100E3000DCDC07E0D4E9012118F8010B9047206AB7
:100E4000401C2062381EA7F10107F3DC2046FFF7A3
:100E500005FB032011B041E601694A1C02610878D4
:100E6000704700B58FB0CDE90131002105910549EA
:100E70007944CDE9031011466846FFF765FB0FB0D2
:100E800000BD0000E5FFFFFF0A6802F8010B0A60E1
:100E90007047D1E900239A4202D2531C0B601070B4
:100EA000704710B5436913B1AFF3008001E0FFF75D
:100EB000E6FA012010BD127800F124010A70002228
:100EC0004A700122EDE711684FF0FF32E9E73A2856
:100ED00000D2303820F02002412A01D3A2F137009D
:100EE000884201D34FF0FF30704700002DE9FF4FDB
:100EF00006468BB00878FF2806D0491C2D2805D05F
:100F000000244FF0000908E000200CE00124F8E77D
:100F100009EB8903491C00EB43090878FF28F7D146
:100F200014B1C9F100008146107800252C46AA466C
:100F300029462D2801D02B2804D1521C2D2813D04E
:100F4000002082468B461078FF280FD04FF0000C0F
:100F50000A21521CA5FB017804FB018105FB0C1141
:100F6000C5194BEB0104EEE70120EAE70021084632
:100F70004FF00000BAF1000F02D000EB80004008F3
:100F8000C0F38157012F01DD4FF0FF370E9955EA6D
:100F9000040009EB01080BD04FF0020918F5FA7FA5
:100FA00016DA4FEACA70002F706008DD012007E0F2
:100FB0004FEACA70C6E900B00FB0BDE8F08F00205C
:100FC000306000F049FAC0F800901821084616E099
:100FD000B8F5FA7F18DD002F02DAF748784401E00F
:100FE000F6487844D0E90010C6E9001040EACA701B
:100FF000706000F031FAC0F80090142108460FB07C
:10100000BDE8F04F06F001B9002108464FF000009E
:10101000B8F10001099002DAC7F1000200E03A4697
:1010200001DAC8F1000106A800F076FC06AB93E8EF
:10103000070003AB83E8070044F23E005BEA0401CB
:101040000090584604D144F21E012C465D460091A2
:10105000210C0904014306D10099240444EA1544F3
:101060002D041039009104F07F41014306D100990D
:10107000240244EA15642D020839009104F07041FD
:10108000014306D10099240144EA15742D01091F7A
:10109000009104F04041014306D10099A40044EAC4
:1010A0009574AD00891E009104F00041084304D1FD
:1010B00000986D196441401E00904FF001033A46BC
:1010C0006846B8F1000FCDE9014503A902DD05F03E
:1010D00016F901E005F0E9F8BAF1000F04460D46F3
:1010E00001D084F00044002108464FF00000099927
:1010F00040F2FF77484010F00C0F07D124F0004079
:10110000284303D0C4F30A50B84212D100F0A4F926
:10111000C0F80090C4F30A50B8420AD1A8487844F5
:10112000D0E90010C6E9001004F0004108437060E7
:1011300042E7C6E900543FE72DE9FF4F1F464FF055
:10114000000A4FF0FF38454691B0D7E90146CDF887
:101150003CA000F07DF9C0680168405C1090B9695E
:1011600012986D1C8847396A814688470028F6D155
:10117000B9F1FF3F0AD0002E24F4D06411DDB9F19B
:101180002B0F08D0B9F12D0F0BD102E0404615B05E
:1011900013E744F48064B96912986D1C8847761E81
:1011A0008146600504A901D52D2000E02B20002EEA
:1011B00001F1010B0DF130088DF810003FDDB9F1A0
:1011C000690F08D0B9F1490F05D0B9F16E0F02D0FF
:1011D000B9F14E0F1CD13B4601A8009580E85002A2
:1011E000DDE912126FF0020006F078F8C11CCED1D2
:1011F0000EE0B96912986D1C884781461398761ED7
:1012000044F4007405600F98401C002E0F9016DD0A
:10121000B9F1300FEDD0B9F1780F02D0B9F1580F14
:101220000DD10F9801280AD13B46CDE90054DDE9E4
:101230001212001F029606F04FF8C11CA7D1109998
:1012400089453ED144F0800406E01399681CAAF158
:10125000010A44F400740860B9696D1C1298761E86
:10126000884730288146F0D02BE01099894505D178
:10127000200603D4761E44F0800418E0484605F0AA
:101280007CFB08B3761E0DF123029345A9F13000D3
:1012900044F4007406D20BF8010B200607D5AAF11E
:1012A000010003E0200602D40AF101008246A005F5
:1012B00002D51399681C0860B96912986D1C88479B
:1012C0008146002ED1DC53E0002E51DDB9F1650FCF
:1012D00002D0B9F1450F4BD1A00549D5B9696D1CB4
:1012E0001298761E24F440748847002E81460CDD47
:1012F0002B2804D0B9F12D0F07D144F48074B969BB
:1013000012986D1C8847761E8146E00501D52D2177
:1013100000E02B2108F8011BCDF8008021E0761EAB
:101320000DF13901884544F400740CD2A9F1300064
:1013300010F0FF0088F8000002D10099884509D913
:1013400008F1010806E0E00501D51E4801E042F27F
:101350000F708246B96912986D1C884781461398B0
:101360000560002E04DD484605F007FB0028D6D1B5
:10137000F96912988847FF2053468BF8000088F8D7
:10138000000000200A900B9004AA0CA90AA8FFF7FD
:10139000ADFDA00502D46FF00100F8E614F0240FB3
:1013A00012D0E0071CD13868DDE90A12031D3B604A
:1013B0000068C0E9001213E0FC640000EE64000065
:1013C000B2630000F1D8FFFF0AA9684605F0C2FA2F
:1013D000E00705D13868009A011D39600068026095
:1013E0002846D4E602681144137801601846704715
:1013F000D160054979445161044979441162002161
:101400001161114600F0CEB8EDFFFFFF130100009F
:10141000426842B1016811F8013B23B1521EC0E994
:101420000012184670470121C160881E704742684B
:101430005AB1C368016843B983688B4205D0491E1D
:10144000521CC0E90012002070474FF0FF30704777
:1014500000487047D002002000487047B0020020CA
:10146000B2F120030AD5C2F1200301FA02F120FAF9
:1014700003F341EA030100FA02F0704700FA03F1B6
:101480004FF00000704730B5B0F10A0271F100036F
:101490004FEA900E4EEA817EB0EB0E0061EB9101B7
:1014A0004FEA101E4EEA017E10EB0E0041EB1111C7
:1014B0004FEA102E4EEA016E10EB0E0041EB1121A7
:1014C0004FEA104E4EEA014E10EB0E0041EB114177
:1014D000401841F100014FEAD00040EA41704FEA64
:1014E000D1014FEA810444EA907410EB800544EB8B
:1014F00001046D1944EB0404521BA3414FF0000397
:1015000048BF0A3200D530BD401C41F1000130BD5A
:1015100010B5044600F09CFA0068005D00F0010080
:1015200010BD00002DE9F0411F4604460326016866
:10153000072A01F4006004DB08B116A505E016A532
:1015400003E008B115A500E015A521F0100020600A
:10155000A069C01EA0610FB1401EA0612046FEF729
:1015600067FF4FB1D4E9012138469047206A401CFB
:101570002062C01C206206E0206AFAE7D4E901215B
:1015800015F8010B9047761EF8D22046FEF766FF4D
:10159000BDE8F0814E414E006E616E00494E46003E
:1015A000696E66002DE9F34F4FF0000A0C4656466F
:1015B0008DB001200C9001F10C000B9062690B982A
:1015C00001219047051E2DD0252D2CD0216A88475A
:1015D000C0B162690B9801219047216A88470028B1
:1015E000F7D16269411E0B98904700E0761CA16913
:1015F0000D988847216A88470028F7D1E1690D983E
:101600008847DBE7A1690D988847A842074601D1C2
:10161000761CD3E7E1690D9888477F1C02D1BAF1A7
:10162000000F6FD06BE162690B9800273D46394689
:1016300090472A2804D162690B980121904701251F
:10164000DFF8D08262690B9801219047A0F1300148
:101650000A290AD24745E5DC07EB870100EB410781
:10166000303FDFD445F01005ECE7E90601D46FF018
:1016700000476C280AD04C2814D0682815D06A2856
:101680000DD074281CD07A281AD01DE062690B98FE
:10169000012190476C2802D045F0040514E045F084
:1016A00002050DE045F020050AE062690B98012172
:1016B0009047682802D045F0080505E045F400652C
:1016C00062690B9801219047C4E9015765283DD014
:1016D00019DC58287AD00CDC452837D004DC2528C2
:1016E00026D041289ED131E046282FD0472899D1D5
:1016F0002CE05B2877D0612828D063287CD0642830
:1017000023D15AE0F6E06F2848D008DC66281DD0C7
:1017100067281BD0692821D06E2816D127E07028B1
:1017200045D0732868D0752847D078280DD14DE072
:10173000A1690D988847252805463FF469AFE169FE
:101740000D9888476D1C3FF46AAFD8E00D99234689
:101750006A466FF0010005F0BDFDC5E045F04000B0
:1017600023464FF000026060A80736D43EE0E80749
:101770007FF447AF2068011D21600068290501D56D
:1017800006701BE7290701D5068017E7A90703D5CF
:10179000F117C0E9006111E706600FE745F040006E
:1017A00023464FF008026060A80716D41EE040F6FA
:1017B0000E0125EA0100606016E045F04000234676
:1017C0004FF00A026060A80707D40FE045F0400020
:1017D0006060A80708D5234610220D996FF001001C
:1017E000AFF3008080E007E0102223460D996FF0F0
:1017F0000100FEF763FF77E04FF0000963284F46D2
:10180000C8464B46CB4602D05B2806D038E0E806F7
:1018100001D40120A060012732E06269D4F80CB045
:101820000B98012190475E2807D14FF001094946E6
:101830006269D4F80CB00B989047216939B900213E
:101840000A4603AB43F82120491C0829FADBD8B328
:10185000216949B308F1010862690B980121904799
:101860005D28F4D1B9F1000F09D0002003A951F887
:101870002020D24341F82020401C0828F7DB03AB8E
:101880002069002820794FEA40701ED05B4622462E
:10189000CDF80080CDE901970D9900286FF0010087
:1018A00020DAAFF300801FE0C11703AA00EBD1617B
:1018B0004B1121F01F0102EB8302411A1368012032
:1018C000884003431360C7E719E00D9922460028BA
:1018D0006FF00100009702DAAFF3008004E0FEF73A
:1018E00093FF01E0AFF3008000280ADA401C06D124
:1018F0000C9820B14FF0FF300FB0BDE8F08F50468C
:10190000FAE7E90701D10AF1010A064400200C9028
:1019100054E60000CCCCCC0C2DE9F04781461646AD
:101920008AB0354878440DC88DE80D0032487844B7
:10193000801C03AC0DC884E80D0041F69B300844C0
:10194000372190FBF1F290FBF1F5A5F1800501FB49
:1019500012041B3C02D56442012000E00020DFF8A5
:1019600098A080460027FA44AAF1BE0A0EE0E007DC
:101970000AD03246684607EB470101230AEB810192
:1019800004F0A8FC8DE8070064107F1C002CEED149
:10199000194F7F44AE3F19E0E80715D007EB04105C
:1019A0000DF1180A90E80E008AE80E00C068F042B7
:1019B00001D1981908903246012306A903A804F022
:1019C00089FC03AB83E807006D10641C002DE3D194
:1019D0004FF0010332466946B8F1000F03A802D068
:1019E00004F04EFC01E004F075FCC9E90001C9F8FF
:1019F00008200AB0BDE8F087B85A000000487047D8
:101A0000B00200207546FFF7F9FFAE4605006946B3
:101A1000534620F00700854618B020B5FEF74AFC73
:101A2000BDE820404FF000064FF000074FF00008DF
:101A30004FF0000BAC46ACE8C009ACE8C009ACE81C
:101A4000C009ACE8C00921F007018D4670470000CD
:101A500010B5FFF7FDFC001D10BD00BFE54F0000F5
:101A60002DE9FF4F1F464FF03C0987B04FF0004271
:101A7000DDE9141001F10108DDF858A002EA405038
:101A80000390002005908346054604460490B969FA
:101A9000461E08988847AAF1010A0290BAF1000F81
:101AA0003BDD02982E2815D01021FFF710FA0028F0
:101AB0002EDB4FF0010B0599014317D0B9F1000F50
:101AC0000BDB4A46C117FFF7CBFC05430C43A9F1DA
:101AD000040905E0012004900BE008B145F0010580
:101AE00001200590049820B9361D02E0049800B149
:101AF000361FB969089808F101088847BBF1000F43
:101B0000AAF1010A0290C9D00999C1F80080C5E77D
:101B10000298702808D0502806D0F969089888479C
:101B2000BBF1000F14D04FE0002002900120BBF168
:101B3000000F049009D0B969089808F10108884796
:101B4000AAF10109B9F1000F07DCF9690898884783
:101B50006FF001000BB0BDE8F08F2B2804D02D28CA
:101B60000CD14FF0FF300490B969089808F10108D2
:101B70008847A9F10109B9F1000FE6DD411CE4D065
:101B80000A21FFF7A4F90028DFDB029908F1010818
:101B900001EB810100EB41000290B9690898884788
:101BA0000A21FFF794F9099AA9F10109B9F1000F87
:101BB000C2F8008001DD0028E7DAF9690898884753
:101BC0000499029800FB016655EA040004D004F071
:101BD0004041090002D006E0039898E0A40044EADE
:101BE0009574AD00B61E04F00041080002D16D19D5
:101BF0006441761E159810F0240F03D04FF00B09A6
:101C00005C4803E04FF028096FF07D00824656459E
:101C100007DAAAEB06018944B9F1410F01DD4FF063
:101C2000410901200021A9F10102FFF719FC024638
:101C300028400B462140084301D0012100E000214B
:101C4000501E029143F1FF3128402140084301D04A
:101C5000012000E000200299834651EA0B014FD099
:101C6000002108464FF00000039900F4400039B10C
:101C700000EB80004FF4400100EBD07001EA6000FF
:101C80008015012802DD4FF0FF3000E013D0401C2A
:101C900036D0029860B3BBF1000F0CD14A46012048
:101CA0000021FFF7DDFB28402140084301D001203F
:101CB00000E00020E0B101204A460021FFF7D0FB00
:101CC000034640190A4661412D1A8C4111D3B9F1DE
:101CD000400F09DD159810F0240F02D0AAF1340648
:101CE00003E0AAF1170600E0761C00254FF000443F
:101CF00006E05B1E42F1FF3220EA030521EA0204FE
:101D0000CAF10100B04206DA1B490398084301906A
:101D1000002000900EE0039AC4F3D321E80A0A439E
:101D2000164940EA44500A433146CDE9000268466C
:101D300004F019FE159810F0240F0BD01598C00769
:101D400015D13868DDE90012031D3B600068C0E969
:101D500000120CE002A8694604F0FCFD1598C007CB
:101D600005D13868029A011D39600068026040465A
:101D7000F0E6000002FCFFFF0000F07F0000F03FF3
:101D80002DE9FF4F92461D4685B04FF00041DDE939
:101D9000124BDDE914727F1E01EA4B50414940F0BD
:101DA000FF4940EA0108002122F02000492804915F
:101DB00002D04E2828D04CE03BA0012607C88DE871
:101DC0000700A9690698641C88477F1E014606D44F
:101DD0001DF8060018B121F0200181420BD0E969FD
:101DE00006988847032E34D0082E32D06FF00100B9
:101DF00009B0BDE8F08F761C032E01D0082EE0D18B
:101E0000601CCAF80000DCE7A9690698641C8847D2
:101E10007F1E2AD420F02000412826D1A9690698E7
:101E2000641C88477F1E20D420F020004E281CD13F
:101E3000A9690698641C88477F1E48F4002849F465
:101E40008009CAF8004001D4282806D0E96906981C
:101E500088475FEACB7012D022E0A9690698641C1B
:101E600088477F1E01D4002803DAE969069888476D
:101E7000BCE72928F1D1641CCAF80040E9E71BF04F
:101E8000240F07D028680499031D2B600068C0E95F
:101E9000001805E02868021D2A600068C0F800905C
:101EA0002046A5E70000F07F494E46494E49545967
:101EB0000000000010B50446AFF300802046BDE8E6
:101EC0001040FEF7E3B9000030B44FF0013C50F889
:101ED000042B51F8043BCCFA52F4D51A20D1FCB9AA
:101EE00050F8042B51F8043BCCFA52F4D51A17D110
:101EF000B4B950F8042B51F8043BCCFA52F4D51A7B
:101F00000ED16CB950F8042B51F8043BCCFA52F4C2
:101F1000D51A05D1002CDAD030BC4FF00000704744
:101F200029BAB1FA81F111F01801D1F120008440F1
:101F3000F2D1CA40CB4012F0FF0213F0FF0330BCD5
:101F4000D01A704701491820ABBEFEE726000200F8
:101F500070470000FEE700007047000070B581B0D8
:101F60000022009290F83C20012A03D10221084669
:101F700001B070BD0E6801220A2E80F83C2009D302
:101F8000B2B25200D0F800E012FA86F21E3A0EF118
:101F90000C0305E0D0F800E006EB46020EF110035A
:101FA0004FF0070C1D680CFA02F4A5431D608D6804
:101FB0001C6805FA02F222431A60496806290FD804
:101FC00001EB81014A1F71461F2351F8345F934092
:101FD00025EA03030B60B3B203FA02F214E000BF78
:101FE00001EB81030C29B2B204D8714651F8304F8D
:101FF000233B03E0714651F82C4F413B1F259D4088
:1020000024EA05059A400D600B6842F2043CC4F2D4
:10201000010C1A43ACF541739E450A603BD1122E68
:1020200006D1DCF8001041F48001CCF8001032E059
:1020300026F0010110292ED1DCF80010102E41F4F9
:102040000001CCF8001026D140F20801C2F20001D4
:1020500009684DF68362C4F21B32A1FB0212910C97
:1020600001EB8101490000910099A1B1009901396A
:102070000091009979B1009901390091009951B10D
:10208000009901390091009929B100990139009115
:1020900000990029EAD1002180F83C10084601B0DF
:1020A00070BD00000068C06C70470000002804BFCD
:1020B0000120704710B50446006C00283ED0206C0B
:1020C000C00645D4206C41F202118843023042F22E
:1020D00004312064C4F20101086820F44030086033
:1020E0000A6894E809101A43D4F810E00A604168BD
:1020F000012321F4807141604168C0F6007341EA18
:102100000E214160416821F040714160416841EA1F
:102110000C014160816821F400618160E16882689E
:1021200011438160A16A8268994222F070628260E4
:10213000826813D122F0405119E000BF204600F020
:1021400065F80020606484F83C00206CC006B9D5B6
:102150000120002184F83C1010BD00BF11438160B4
:10216000816821F040518160E16A82681143816099
:10217000816821F0020181608168227E94F820301C
:1021800041EA42018160416883B141F400614160EC
:1021900041684EF2000221F460414160616ACFF66D
:1021A000FF72436802EB4131194301E021F4006101
:1021B0004160C16A40F2000C21F47001C162E26921
:1021C0006169CFF6F07CC36A0CEB02521A43C2621B
:1021D000826822F40072826094F83020836843EAB7
:1021E00042228260826822F480628260826842EACF
:1021F0008121816000206064216C012262F3010171
:102200002164002184F83C1010BD000080B586B028
:1022100042F200010068C4F20101002288420592E6
:10222000049201D006B080BD43F630000092C4F2A3
:102230000200436943F480734361436903F480738C
:102240000093009B0092036843F00403036000685E
:1022500000F0040000900098072001900320CDE9D1
:10226000020201F5684001A900F09AF906B080BDAC
:1022700070B5044600680D468268520544BF806808
:102280005FEAC05038D400F06BFA21680A68920700
:1022900049D40646681C3CD0DDB90868800721D5C2
:1022A000086880073FD4086880071BD50868800746
:1022B00039D40868800715D50868800733D40868C2
:1022C00080070FD508688007E7D52CE008688007ED
:1022D00029D400F045FA801B2168A842F6D9086885
:1022E0008007F3D4206C40F004002064002084F8C0
:1022F0003C00032070BD00BF206C40F02000206433
:10230000002084F83C00012070BD00BF08688007F1
:1023100009D40868800706D4086880075CBF08688D
:102320005FEA8070F2D56FF012000860206C40F414
:1023300000702064886810F0405F01D1207E08B1F1
:10234000002070BDC86A10F4700F02D08868400584
:10235000F6D4206C20F480702064206CC004EFD48C
:10236000206C40F001002064002070BD10B581B0E9
:102370000021009190F83C10012903D1022001B006
:1023800010BD00BF0468012180F83C10214651F8BF
:10239000083FDB0729D10B684DF6836243F0010348
:1023A0000B6040F20803C2F200031B68C4F21B3248
:1023B000A3FB02239A0C02EB42020092009AA2B104
:1023C000009A013A0092009A7AB1009A013A00927A
:1023D000009A52B1009A013A0092009A2AB1009AEA
:1023E000013A0092009A002AEAD10A68036CD207E7
:1023F0000AD143F01001016400F1440101200A6890
:102400001043086056E000BF40F2017223EA020266
:1024100002F5807202646268520504D5026C0123E1
:1024200063F30D320264026C4FF0000E0023D204FD
:1024300044BF426C22F0060342F2043C436480F83D
:102440003CE06FF02200C4F2010C2060DCF80000D8
:10245000C0060DD0ACF5417084422BD14FF604502C
:10246000CFF6FF705CF8000010F0405F22D125E04D
:1024700042F20000C4F20100844217D042F2002070
:10248000C4F2010084420DD042F20010C4F20100F7
:1024900084420FD1DCF80000C00607D0ACF5827092
:1024A000844207D1DCF80000C00603D4086810F0AD
:1024B000405F03D0002001B010BD00BF4FF080404E
:1024C0009DE7000070B5866D044600F049F994F868
:1024D0003510022928D105462068216C026822F0B7
:1024E00016020260426922F08002426109B9A16CC1
:1024F00019B1016821F008010160016821F00101B2
:10250000016000BF20680068C00715D000F028F9FE
:10251000401B0628F6D320206065032084F8350090
:10252000002184F8341070BD8020606501200021F6
:1025300084F8341070BD00BFE06D3F2101FA00F057
:10254000B060012084F835000020002184F83410A8
:1025500070BD000090F83510022909D1052180F8DE
:1025600035100068016821F001010160002070470A
:102570008021416501207047B0B5044600F0F0F8B5
:10258000054640F20000C2F200000078611C18BF4E
:10259000044400BF00F0E4F8401BA042FAD3B0BDF1
:1025A0002DE9F04F82B000F13E4241F6004502F1C4
:1025B000FF77C4F20205082243F6004E4FEAB72621
:1025C000A84208BF0722C4F2010E072E38BF4FEA07
:1025D000B7220125002600274FF00008009208E0EE
:1025E00008F101080437B8F1100F06F1020600F0F7
:1025F000A7800C6805FA08F914EA090FF0D0D1F8A1
:1026000004B003220BF0030CACF10104B240012C26
:102610006FEA020A10D88268CC6802EA0A02B44063
:10262000224382604268CBF3001422EA090204FAD2
:1026300008F42243426005E0BCF1030F02D14FF0E1
:10264000030C20E0C2688C6802EA0A02B44022430C
:10265000BCF1020FC26016D16FF0030202EA580209
:102660000244D2F820C007F01C050F230C69AB40D0
:102670002CEA030304FA05F52B431362D1F804B0E6
:1026800001250BF0030C02680CFA06F302EA0A02B9
:102690001A431BF4403F0260A2D0002243F64403D9
:1026A0000192C4F202031A684FF6084C42F48042C9
:1026B0001A601A68CFF6FF7C02F480420192019AF8
:1026C00028F00302724452F80C3007F00C050F2476
:1026D000AC40A343009C04FA05F52B4342F80C30B0
:1026E000DEF808204B6842EA090543F60C4CDC0290
:1026F00058BF22EA0905CEF80850C4F2010CDCF8F4
:1027000000209C0242EA090558BF22EA0905CCF8DC
:102710000050DEF804209C0342EA090558BF22EA73
:102720000905CEF80450DEF80020DB0342EA090573
:1027300058BF22EA0905CEF80050012550E700BF36
:1027400002B0BDE8F08F00000069084018BF01200A
:1027500070470000002A08BF09048161704700002B
:1027600040F2A470C2F200000068704740F200001E
:1027700040F2A471C2F20000C2F2000100780A68BF
:10278000104408607047000080B543F60040C4F272
:102790000200016841F400710160016841F4806148
:1027A0000160016841F480710160032000F088F845
:1027B0000F2000F005F800F027F8002080BD000091
:1027C00070B540F20006C2F2000640F2080132780D
:1027D000C2F200014FF47A730968B3FBF2F20446C7
:1027E000B1FBF2F1084600F043FB0F2C4FF001055E
:1027F00008D838B94FF0FF3021460022002500F0FC
:1028000033F87460284670BD82B0002043F6400162
:102810000190C4F202014A6842F480424A604A6868
:1028200002F480420192019A0090086840F08050C2
:102830000860086800F080500090009802B070476F
:10284000002848BF7047C1B200F01F00012202FA01
:1028500000F04EF20012CEF2000242EAD10121F065
:10286000030108607047000010B54EF60C5CCEF214
:10287000000CDCF80030C3F3022E8EF00704042CA9
:1028800028BF0424BEF103034FF0FF3E0EFA04F408
:1028900038BF0023A14399400EFA03F39A43114332
:1028A00000F00F0200F160430901043A03F56443AC
:1028B0006244002848BF02F10C03197010BD0000EB
:1028C0004EF60C51CEF200010A684FF6FF031A4093
:1028D00060F30A2242F0806040F0FD7008607047AB
:1028E0002DE9F041002800F08B8043F60808C4F27F
:1028F00002080446D8F8F8030D4600F007008842A5
:1029000007D288F8F853D8F8F80300F00700A84277
:1029100076D12068810717D5410705D5D8F8001072
:1029200041F4E051C8F80010010705D5D8F80010AF
:1029300041F46041C8F80010D8F80010A26821F0F6
:10294000F0011143C8F80010C0073FD1D8F8F803D0
:1029500000F00700A84207D988F8F853D8F8F80320
:1029600000F00700A8424BD12068410707D5D8F8EE
:102970000010E26821F4E0511143C8F8001000078C
:1029800008D5D8F80000216920F4604040EAC10071
:10299000C8F8000000F07CF8D8F8001047F2384280
:1029A000C1F30311C0F60002515C40F2080220FAA4
:1029B00001F140F20400C2F200000068C2F200021D
:1029C0001160FFF7FDFE0020BDE8F0816068811E08
:1029D000022907D258F8081C89015CBF0120BDE814
:1029E000F08111E0012807D158F8081C89035CBF69
:1029F0000120BDE8F08107E058F8081C890703D4DE
:102A00000120BDE8F08100BFD8F8001021F00301DB
:102A10000843C8F80000FFF7A3FE064641F28837D6
:102A2000D8F80000616800F00C00B0EB810F8DD089
:102A3000FFF796FE801BB842F2D90320BDE8F08173
:102A400040F2080043F60801C2F20000C4F202019D
:102A50000068096847F24842C1F38221C0F60002CB
:102A6000515CC8407047000040F2080043F608017E
:102A7000C2F20000C4F202010068096847F248424D
:102A8000C1F34231C0F60002515CC84070470000FB
:102A900010B543F60404C4F20204606800F00C00B0
:102AA00008280BD0042819BF42F20040C0F2F400FD
:102AB00047F64000C0F27D1010BD00BF20682168BD
:102AC0002368490247F64001C0F27D1100F03F0241
:102AD000C3F388105CBF42F20041C0F2F401A1FBD5
:102AE00000010023FDF7F8FB21680222C1F3014138
:102AF00002EB4101B0FBF1F010BD00002DE9F04107
:102B000082B0002868D00446007843F60006C0076B
:102B1000C4F202060BD0B06800F00C00042840F0AC
:102B20009F803068800302D56068002854D02078E8
:102B300080071AD5B06810F00C0F09D0B06800F00B
:102B40000C00082840F0A6807068400200F1A280C6
:102B50003068800702D5E06801283DD130682169DE
:102B600020F0F80040EAC10030602078000737D438
:102B7000207840074CD4A56955B3B06800F00C002C
:102B8000082840F0BB80012D26D07068E16900F470
:102B900080028A4220D1216A00F03F028A421BD182
:102BA00047F6C071626A0140B1EB821F14D1A16A7D
:102BB0004FF6FF73C903994300F44032A1F5803109
:102BC0008A4209D1E16A00F07060B0EB016F03D175
:102BD000002002B0BDE8F081012002B0BDE8F08124
:102BE0006069002840F20000C4F2472076D001213D
:102BF000C0F8801EFFF7B4FD054600BF706F800768
:102C0000B6D4FFF7ADFD401B0228F7D9DDE000BFC9
:102C1000306C10F080580AD100200190306C40F0E8
:102C200080503064306C00F080500190019847F281
:102C30000007C4F200073868C00541D4386840F482
:102C400080703860FFF78CFD054600BF3868C0050E
:102C500036D4FFF785FD401B0228F7D9B5E000BF49
:102C6000B06800F00C00082803D1706840023FF5FE
:102C700058AF6068B0F5803F07D0B0F5A02F40F0A6
:102C80008D80306840F480203060306840F48030BF
:102C900030608DE0E068002852D00020C4F2472068
:102CA00001210160FFF75CFD054600BF3068800729
:102CB0003FF554AFFFF754FD401B0228F6D984E0DE
:102CC000A068012805D005284ED1306F40F00400DF
:102CD0003067306F40F0010030674FE00021C0F8EE
:102CE000801EFFF73DFD0546706F80077FF540AF02
:102CF000FFF736FD401B0228F6D966E00027C4F234
:102D0000472700203866FFF72BFD022D05460BD123
:102D1000306880015ED5FFF723FD401B02284FF08D
:102D20000300F5D955E700BF306880017FF550AF4B
:102D3000FFF716FD401B02284FF00300F4D948E7C7
:102D40000020C4F2472000210160FFF709FD05467D
:102D5000306880077FF509AFFFF702FD401B0228AE
:102D60004FF00300F4D934E7316F002821F001015E
:102D70003167316F21F0040131674DD0FFF7F0FC6E
:102D8000054641F2883700BF306F800756D4FFF701
:102D9000E7FC401BB842F7D917E000BF31680028B4
:102DA00021F480313160316821F4802131604FD0CD
:102DB000FFF7D6FC054600BF306880033FF5B7AE8D
:102DC000FFF7CEFC401B6428F6D9032002B0BDE813
:102DD000F08100BF04F11C052FCD084340EA8210AA
:102DE000D9034FF6FF729143A1F5803140EA0560A7
:102DF0000843706001203866FFF7B2FC044600BF4C
:102E0000306880013FF5E4AEFFF7AAFC001B022802
:102E10004FF00300F4D9DCE6FFF7A2FC054641F2CF
:102E2000883700BF306F800708D5FFF799FC401B3B
:102E3000B8424FF00300F5D9CBE600BFB8F1000F60
:102E40007FF499AE306C20F08050306493E600BF80
:102E5000FFF786FC054600BF306880037FF567AE4C
:102E6000FFF77EFC401B64284FF00300F4D9B0E666
:102E7000411E0020B0EB116F1CBF012070474EF2C5
:102E80001002CEF2000251604EF62351CEF2000144
:102E9000F0230B70072190601160704770470000AD
:102EA0007047000010B590F83C20012A4FF0020254
:102EB00051D080F83D200268D2F804E0D2F808C072
:102EC0000C682EF07003234341F2FF74C4F2000437
:102ED000A24253600EDC40F2FF73C4F200039A4238
:102EE00016DCB2F1804F2BD040F20043C4F2000355
:102EF00024E000BF40F2FF33C4F201039A4213DC26
:102F000041F60003C4F200039A4219D0002313E0F3
:102F100040F60003C4F200039A4211D040F6004389
:102F2000C4F200030AE000BF44F20003C4F201034C
:102F30009A4205D040F20043C4F201039A4204D100
:102F400049682CF08003194391600121002280F828
:102F50003D1080F83C20104610BD0000002804BF42
:102F60000120704710B5044690F83D0028B90020B4
:102F700084F83C00204600F01FF8022084F83D0051
:102F80002068211D01F0AAFB012084F8460084F886
:102F90003E0084F83F0084F8400084F8410084F843
:102FA000420084F8430084F8440084F8450084F823
:102FB0003D00002010BD000080B582B0006840F6E2
:102FC0000001C4F20001884216D040F20041C4F270
:102FD000000188420ED10020019043F64000C4F267
:102FE0000200016841F002010160006800F0020087
:102FF0000190019802B080BD0020009043F640008F
:10300000C4F202000168002241F00401016000687E
:10301000002100F00400009000981E20FFF724FC1F
:103020001E2002B0BDE88040FFF70ABC90F83D10BA
:1030300001291CBF01207047022180F83D10006863
:1030400041F2FF71C4F2000188420DDC40F2FF71D1
:10305000C4F20001884215DCB0F1804F2AD040F262
:103060000041C4F2000123E040F2FF31C4F201014B
:10307000884213DC41F60001C4F20001884219D0F5
:10308000002113E040F60001C4F20001884211D093
:1030900040F60041C4F200010AE000BF44F2000122
:1030A000C4F20101884205D040F20041C4F201019E
:1030B000884206D1816801F00701062904BF00207B
:1030C0007047016841F00101016000207047000075
:1030D00090F83D1001291CBF01207047022180F8A3
:1030E0003D10006841F2FF72C168C4F200029042D4
:1030F00041F00101C1600DDC40F2FF71C4F200013A
:10310000884215DCB0F1804F2AD040F20041C4F271
:10311000000123E040F2FF31C4F20101884213DCD8
:1031200041F60001C4F20001884219D0002113E0E9
:1031300040F60001C4F20001884211D040F600417F
:10314000C4F200010AE000BF44F20001C4F2010130
:10315000884205D040F20041C4F20101884206D104
:10316000816801F00701062904BF0020704701684B
:1031700041F0010101600020704700000146006835
:1031800041F21113026A1A4204D00122002081F890
:103190003D207047026A40F244431A42F5D102686A
:1031A00022F0010202600122002081F83D207047D8
:1031B0000146006841F21113C26822F00102C260A8
:1031C000026A1A4204D00122002081F83D20704793
:1031D000026A40F244431A42F5D1026822F0010229
:1031E00002600122002081F83D20704780B590F8F0
:1031F0003C20012A4FF0020200F0C28080F83D20FE
:10320000D0F800C04FF67772DCF8083023EA0202EB
:10321000CCF808200B684F2B28DC1F2B44DD202B1B
:1032200045D0302B43D0402B40F0AC80D1F804E0A7
:10323000C968DCF82030DCF8202022F00102CCF84C
:103240002020DCF8182022F0F00242EA011123F0DD
:103250000A0242EA0E02CCF81810CCF82020DCF862
:10326000081041F0470121F0300180E06F2B27DD8D
:10327000B3F5005F48D0B3F5805F7AD0702B40F093
:103280008180D1E901E3C968DCF8082043EA0E0334
:1032900022F47F4243EA01211143CCF80810DCF804
:1032A000081041F0770162E00BB1102B6AD1DCF815
:1032B000081021F07001194341F0070157E000BFE9
:1032C000502B35D0602B5DD1D1F804E0C968DCF813
:1032D0002030DCF8202022F01002CCF82020DCF88E
:1032E000182022F4704242EA013123F0A00242EA9F
:1032F0000E12CCF81810CCF82020DCF8081041F0A1
:10330000670121F0100132E0D1E901E3C968DCF87E
:10331000082043EA0E0322F47F4243EA01211143CD
:10332000CCF80810DCF8081041F480411FE000BF21
:10333000D1F804E0C968DCF82030DCF8202022F065
:103340000102CCF82020DCF8182022F0F00242EA3A
:10335000011123F00A0242EA0E02CCF81810CCF850
:103360002020DCF8081041F0570121F02001CCF8B2
:1033700008100022012180F83D10002180F83C1047
:10338000104680BD0122F5E77047000070B5044685
:103390000068C5680669B10716D515F0020113D09B
:1033A0006FF002010161012121778069800703D05C
:1033B0002046FFF7E9FF05E0204600F08FF82046A1
:1033C00000F08EF800202077700719D515F0040062
:1033D00016D020686FF00401016102212177806915
:1033E00010F4407F04D02046FFF7CEFF06E000BF78
:1033F000204600F073F8204600F072F80020207795
:10340000300717D515F0080014D020686FF00801B8
:10341000016104212177C069800703D02046FFF7AE
:10342000B3FF05E0204600F059F8204600F058F8B8
:1034300000202077F00619D515F0100016D020686E
:103440006FF01001016108212177C06910F4407FFD
:1034500004D02046FFF798FF06E000BF204600F0AA
:103460003DF8204600F03CF800202077F00718BF18
:1034700015F0010002D1300609D412E020686FF087
:1034800001010161204600F02DF8300609D515F044
:10349000800006D020686FF0800101612046FFF7B0
:1034A000FDFC700609D515F0400006D020686FF0CD
:1034B00040010161204600F01FF8B00658BF70BD02
:1034C00015F0200008D021686FF0200220460A6124
:1034D000BDE87040FFF7E4BC70BD0000704700001D
:1034E00070470000006840F60001C4F20001884205
:1034F00018BF704702F0C6B8704700007047000060
:1035000070470000B0B582B0044600680168C36827
:10351000426901F02F05202D03F0200506D12DB1C1
:10352000204602B0BDE8B04001F084B95FEA017CFA
:103530001EBF02F0010E03F4907212EB0E0253D183
:10354000226B012A05D111F0100218BF13F01002EE
:1035500036D10A0622D513F080021FD094F841100C
:1035600021293FD1A168B1F5805F03D121690029EC
:1035700000F07282216A4A1C226209784160E18C63
:1035800001390A04E1842DD1C16821F08001C160B4
:10359000C16841F04001C16002B0B0BD490621D50B
:1035A00013F040011ED0C16821F04001C16020210C
:1035B000204684F8411002B0BDE8B04000F090BC55
:1035C00000210191016801914168019101994069CF
:1035D000400613D4A08DE18DE28D002A18BF8842E9
:1035E00040F0BC8102B0B0BDCA0718BF13F48072AE
:1035F00040F0B8804A0700F1BB80C0E0E06B016892
:1036000049688AB2002AEDD0A38D9A42EAD2E185B8
:10361000C069B0F5807F00F09C80206850E8030FFF
:10362000216820F4807041E80302DAB1206850E894
:10363000030F216820F4807041E8030292B12068F2
:1036400050E8030F216820F4807041E803024AB17A
:10365000206850E8030F216820F4807041E80302DD
:10366000002ADAD1206850E8050F216820F0010017
:1036700041E80502DAB1206850E8050F216820F022
:10368000010041E8050292B1206850E8050F216869
:1036900020F0010041E805024AB1206850E8050F1A
:1036A000216820F0010041E80502002ADAD12068F3
:1036B00050E8050F216820F0400041E80502DAB12A
:1036C000206850E8050F216820F0400041E805021D
:1036D00092B1206850E8050F216820F0400041E8D1
:1036E00005024AB1206850E8050F216820F040002B
:1036F00041E80502002ADAD1202084F842000020A7
:103700002063206850E8030F216820F0100041E892
:103710000302DAB1206850E8030F216820F010009E
:1037200041E8030292B1206850E8030F216820F0BD
:10373000100041E803024AB1206850E8030F2168F5
:1037400020F0100041E80302002ADAD1E06BFEF716
:10375000B9FE02206063A08DE18D401A81B220463F
:1037600075E100BF626C42F0010262644A0706D54F
:10377000BEF1000F03D0626C42F0020262648A075D
:1037800006D5BEF1000F03D0626C42F00402626401
:10379000BCF1000F09D545EA0E02B2FA82F25209D5
:1037A00003D1626C42F008026264626C002A3FF44A
:1037B00019AF11F0200118BF002D03D0204601F0F1
:1037C00039F820684069616C00F0400001F00801A0
:1037D000401800F0B58000BF206850E8030F216852
:1037E00020F4907041E80302BAB3206850E8030F58
:1037F000216820F4907041E8030272B3206850E819
:10380000030F216820F4907041E803022AB3206876
:1038100050E8030F216820F4907041E80302002A69
:10382000DAD11AE0206850E8050F216820F0010085
:1038300041E80502DAB1206850E8050F216820F060
:10384000010041E8050292B1206850E8050F2168A7
:1038500020F0010041E805024AB1206850E8050F58
:10386000216820F0010041E80502002ADAD1206B2E
:10387000012824D1206850E8030F216820F01000AF
:1038800041E80302DAB1206850E8030F216820F014
:10389000100041E8030292B1206850E8030F21684C
:1038A00020F0100041E803024AB1206850E8030FFD
:1038B000216820F0100041E80302002ADAD120201C
:1038C00084F84200002020632068406940063FD50C
:1038D000206850E8050F216820F0400041E805020B
:1038E000DAB1206850E8050F216820F0400041E877
:1038F000050292B1206850E8050F216820F04000D1
:1039000041E805024AB1206850E8050F216820F01F
:10391000400041E80502002ADAD1E06BC0B144F66C
:103920002901C0F600010165FEF714FE00283FF4EE
:1039300059AEE06B016D02B0BDE8B040084700BF72
:103940002046FFF7DDFD0020606402B0B0BD00BF7F
:10395000204602B0BDE8B040FFF7D2BD401A216852
:1039600051E8031F226821F4907142E80313DBB190
:10397000216851E8031F226821F4907142E8031383
:1039800093B1216851E8031F226821F4907142E845
:1039900003134BB1216851E8031F226821F4907191
:1039A00042E80313002BDAD1216851E8051F226891
:1039B00021F0010142E80513DBB1216851E8051F40
:1039C000226821F0010142E8051393B1216851E812
:1039D000051F226821F0010142E805134BB121685F
:1039E00051E8051F226821F0010142E80513002B70
:1039F000DAD1202184F8421000212163216851E8A6
:103A0000031F226821F0100142E80313DBB1216893
:103A100051E8031F226821F0100142E8031393B11B
:103A2000216851E8031F226821F0100142E80313C6
:103A30004BB1216851E8031F226821F0100142E8D0
:103A40000313002BDAD1022281B22046626302B056
:103A5000BDE8B040FFF752BD216A31F8022B6FF389
:103A60005F22426021628AE5002804BF012070477E
:103A700010B5044690F8410028B9002084F84000B1
:103A8000204600F021F8242084F841002068C16815
:103A900021F40051C160204600F04CFF206801690C
:103AA00021F490410161416921F02A014161C1681D
:103AB00041F40051C16000202021606484F841106D
:103AC00084F84210606310BD80B586B0016841F291
:103AD0000000C4F20100814202D006B080BD00BFE8
:103AE000002143F630020191C4F20202536900F54D
:103AF000744043F010035361536903F010030193C2
:103B0000019B0191136843F002031360126802F0F5
:103B100002020192019AC02201920222CDE9022101
:103B2000032104910721059101A9FEF739FD252004
:103B300000210022FEF798FE2520FEF781FE06B048
:103B400080BD00002DE9F04381B0044690F84200AA
:103B5000202825D1884600294FF0010000F0FA8086
:103B60001746002A00F0F680002022211D466064DE
:103B700084F842102063FEF7F3FDA785E785A1686E
:103B80000746B1F5805F02D12069002854D046462F
:103B90004FF00008E08D002852D005F101090FE038
:103BA000022001B0BDE8F083406800266FF35F207B
:103BB00028F8020BE08D0138E085E08D00283FD029
:103BC00020680168890617D4B9F1000F22D0002DB2
:103BD00000F0C480FEF7C4FDC01BA84200F2B6800E
:103BE0002068C168490744BF01685FEA017129D4B0
:103BF00001688906EED500BF002ED5D0A168B1F5C9
:103C0000805F15D009B9216991B1406800F07F004B
:103C10000FE000BF01688906EED4016889065CBF29
:103C200001685FEA8161E7D401688906F2D5E3E7BC
:103C3000406806F8010BBDE70026E08D0028ACD1F6
:103C4000002084E00021009101680091406800900C
:103C5000009800BF206850E8030F216820F490709E
:103C600041E80302BAB3206850E8030F216820F44A
:103C7000907041E8030272B3206850E8030F216896
:103C800020F4907041E803022AB3206850E8030F43
:103C9000216820F4907041E80302002ADAD11AE08A
:103CA000206850E8050F216820F0010041E8050276
:103CB000DAB1206850E8050F216820F0010041E8E2
:103CC000050292B1206850E8050F216820F001003C
:103CD00041E805024AB1206850E8050F216820F04C
:103CE000010041E80502002ADAD1206B012824D125
:103CF000206850E8030F216820F0100041E803021B
:103D0000DAB1206850E8030F216820F0100041E884
:103D1000030292B1206850E8030F216820F01000E0
:103D200041E803024AB1206850E8030F216820F0FF
:103D3000100041E80302002ADAD1202084F8420072
:103D4000002008212063616484F8400003202021C2
:103D500084F8421001B0BDE8F08300BFFEF700FD1B
:103D6000F4E70000704700002DE9F041044690F8A8
:103D7000410020281CBF0220BDE8F0810D4600292B
:103D80004FF0010000F0AA801646002A08BFBDE8E7
:103D9000F081002060642120984684F84100FEF7FD
:103DA000DFFCA684E684A1680646B1F5805F02D1F7
:103DB0002069002862D02F460025E08C002861D0C1
:103DC00018F1010018D0B8F1000F37D1216808E0D0
:103DD00017F8010B4860E08C0138E084E08C002883
:103DE00051D00868000673D5002FF1D135F8020BC9
:103DF00000276FF35F20EDE7216802E00868000606
:103E000009D40868000606D4086800065CBF086884
:103E10005FEA0060F2D51FB117F8010B05E000BFA3
:103E200035F8020B00276FF35F204860E08C013803
:103E3000E084E08C0028E4D125E000BF216800BFC9
:103E40000868000608D4FEF78BFC801B404541D86B
:103E50002168C868F4E700BF17B117F8010B04E048
:103E600035F8020B00276FF35F204860E08C0138C3
:103E7000E084E08C0028E3D105E000BF0027E08C5F
:103E800000289DD12168086840061FD4B8F1000FB2
:103E90001ED018F101000FD10868400616D408683A
:103EA000400613D40868400610D4086840064FF056
:103EB0000000F1D50FE000BFFEF752FC801B40452B
:103EC00008D82068C16800684006F5D5002002E0E7
:103ED000FEF746FC0320202184F84110BDE8F08164
:103EE00070470000FEE7000040F21032C2F200020C
:103EF000C2E90001704700002DE9F043012BA8BF83
:103F0000012A01DABDE8F08340F2823E03EB010CA6
:103F100002EB0009C2F2000E6FF0800805E000BF5E
:103F200001316145A8BFBDE8F0832029F8D80446D7
:103F300003E000BF01344C45F2DA402CFAD8E60821
:103F40000EEBC10704F00705BA5D48FA05F507EB6B
:103F5000D4032A40BA5593F8002193F800622A400E
:103F600083F8002106EA050283F80022E2E7000058
:103F7000B0B50278002A08BFB0BD0C46451E00BF90
:103F8000D0B2214600F018F8AA780135002AF7D1FE
:103F9000B0BD0000B0B50278002A08BFB0BD4C1E0D
:103FA000451E00BF14F8011FD0B200F005F8AA7832
:103FB0000135002AF6D1B0BD2DE9F04F9AB040F29C
:103FC0001039C2F20009D9F80060824606F00700F5
:103FD0006FF0800E80224EFA00F322FA00F006F114
:103FE0000108009008F007004EFA00F422FA00F0F1
:103FF00006F1020C05900CF007000A944EFA00F44A
:1040000022FA00F0F71C049007F0070009944EFA1A
:1040100000F422FA00F0351D039005F007000B9321
:1040200008944EFA00F422FA00F0731D029003F097
:10403000070007944EFA00F422FA00F040F20C0256
:104040000190CAEBCA00C2F20002104401F0010262
:10405000159201F002020C941492A0F1E002D9F83A
:10406000044040F28230C2F20000129600EBD60EFD
:1040700000EBD30900EBD80A0E9500EBD50B00EB53
:10408000DC0500EBD706E01D01F004011890E0000C
:1040900013910D93CDF84480CDF840C019900F973F
:1040A00013E000BF87F80012189801340EF1080ED3
:1040B000013209F108090AF1080A0BF1080B083569
:1040C000844206F1080680F2A581202CECD81792D4
:1040D000127851B2B1F1FF3F169217DD12994029C3
:1040E0003ED8199B0B981EF803100EEB03070140F6
:1040F0000EF8031097F8001197F800C2014087F8F6
:1041000000110CEA000187F8001229E012994029F9
:1041100026D81998009A1EF80010159F41EA020C43
:104120000EEB0008002F0B9B08BF01EA030C0EF8F2
:1041300000C098F800C114994CEA020798F80002F0
:10414000002908BF0CEA030788F80071139F40EAB2
:104150000201002F08BF00EA0301169A88F8001236
:10416000510615D41198402840D8199B0A981AF87E
:1041700003100AEB030701400AF8031097F8001137
:1041800097F800C2014087F800110CEA00012BE00B
:10419000119840282AD8199BDDF814801AF803C01A
:1041A00015980AEB03074CEA080100280A9808BF93
:1041B0000CEA000197F80021DDF850C00AF803105E
:1041C00097F8003242EA0801BCF1000F08BF02EA8A
:1041D00000018446139887F8001143EA0801169AF3
:1041E000002808BF03EA0C0187F80012910613D4D7
:1041F000109840283BD8199B0998E95CEF180140BA
:10420000E95497F8001197F800C2014087F80011AF
:104210000CEA000129E000BF1098402827D8199B1C
:10422000DDF810C0E85CEF18069040EA0C01159824
:10423000DDF824800028069808BF00EA080197F8F6
:1042400000211498E95497F8003242EA0C01002842
:1042500008BF02EA0801139887F8001143EA0C012D
:10426000002808BF03EA0801169A87F80012D10651
:1042700012D40F9840283AD8199B0898F15CF71887
:104280000140F15497F8001197F800C2014087F8F7
:1042900000110CEA000128E00F98402827D8199B4C
:1042A000DDF80CC0F05CF718069040EA0C01159898
:1042B000DDF820800028069808BF00EA080197F87A
:1042C00000211498F15497F8003242EA0C010028BA
:1042D00008BF02EA0801139887F8001143EA0C01AD
:1042E000002808BF03EA0801169A87F80012110790
:1042F00016D40E98402842D8199B07981BF8031033
:104300000BEB030701400BF8031097F8001197F827
:1043100000C2014087F800110CEA00012DE000BF47
:104320000E9840282BD8199BDDF808C01BF8038095
:10433000159848EA0C010BEB03070028079808BF03
:1043400008EA00010BF8031097F8003197F8001203
:10435000DDF85080069143EA0C01B8F1000F08BF68
:1043600003EA0001069B8046139887F8001143EA90
:104370000C01002808BF03EA080187F80012510762
:1043800018D40D98179A40283FF68EAE199B0C98BA
:1043900019F8031009EB0307014009F8031097F817
:1043A000001197F800C2014087F800110CEA0001E3
:1043B00078E600BF0D98179A40283FF675AE199B16
:1043C000DDF8048019F803C0159809EB03074CEADF
:1043D000080100280C9808BF0CEA000197F80001BA
:1043E000DDF850C009F8031097F8003240EA0801E0
:1043F000BCF1000FDDF830C008BF00EA0C011398D3
:1044000087F8001143EA0801002808BF03EA0C01FD
:1044100048E600BF129840F210310630C2F20001A7
:1044200008601AB0BDE8F08F2DE9F04F86B047F272
:104430005045844603F00100C0F6000540F2823B7F
:104440000191039003F0020903F0040A002105EB37
:10445000C200C2F2000B009005E000BF02990131DA
:10446000082900F0CB8001980291014420290846D8
:104470000591F3D8029800990025085C049002E0A9
:104480000235082DEAD004980CEB050800FA05F671
:1044900034063FD5B8F1400F5AD8059808F0070404
:1044A0004FEAD80157460BEBC00A6FF080024B462B
:1044B0001AF80190604642FA04FC802222FA04F4C1
:1044C000039A0AEBD80B49EA040E002A08BF09EA4E
:1044D0000C0E0AF801E09BF8001199469BF8003297
:1044E000BA4641EA0407B9F1000F08BF01EA0C0718
:1044F00043EA04018BF80071BAF1000F08BF03EA28
:104500000C018BF8001240F2823B8446C2F2000B91
:104510001EE000BFB8F1400F1AD805984FEAD80343
:104520000BEBC00708F00701F85C6FF0800242FA5D
:1045300001F107EBD8040840F85494F8000194F80E
:104540000032084084F8000103EA010084F8000208
:10455000700608F1010633D5402E91D8059906F072
:1045600007004FEAD60E0BEBC1036FF0800103EB9F
:10457000D60713F80E6041FA00F4802121FA00F00A
:10458000039946EA0002002908BF06EA040203F87C
:104590000E2097F8001197F8002241EA0003B9F1C4
:1045A000000F40EA020008BF01EA040387F8003167
:1045B000BAF1000F08BF02EA040087F800025FE7C3
:1045C000402E3FF65DAF059AF1080BEBC20206F0F4
:1045D000070002EBD603575C6FF0800646FA00F046
:1045E0000740575493F8001193F8002201401040FF
:1045F00083F8001183F8000242E700BF06B0BDE86F
:10460000F08F0000FEE70000FEE7000070470000AA
:1046100070470000FEF7AAB8B0B592B0002443F688
:1046200040000B94CDE90944CDE907440594CDE958
:104630000344CDE901440094C4F20200016802255C
:1046400041F080510160006800F0805000900098B7
:1046500047F200000094C4F20000016841F4804178
:104660000160006800F480400090009801200990EB
:1046700010200A9008200E904820CDE90F05042054
:10468000119006A80695CDE90C54FEF737FA18B13B
:1046900072B600BFFEE700BF0F20CDE901054FF461
:1046A0008050CDE9040401A802210394FEF718F913
:1046B00010B172B6FEE700BF12B0B0BD4EF6885022
:1046C000CEF20000016841F4700101607047000003
:1046D00040F21470C2F20000FEF758BE10B540F66A
:1046E000FF3E0368C4F2000E40F2004C7045C4F275
:1046F000010C27DCB0F1804F31D040F20042C4F20F
:10470000000290422BD040F60002C4F20002904218
:1047100025D041F6FF72C4F20002904229DC7045B8
:104720003CDCB0F1804F5FD040F20042C4F20002A6
:10473000904259D040F60002C4F20002904253D099
:1047400056E000BF40F60042C4F20002904206D09C
:10475000604504D00022C4F201029042D9D14A68D7
:1047600023F07003134341F6FF72C4F2000290423B
:10477000D5DD43F6FF72C4F20102904222DC42F220
:104780000002C4F2000290422ED00022C4F20102C4
:10479000904229D0604527D02AE000BF40F6004271
:1047A000C4F2000290421FD041F60002C4F200029F
:1047B000904219D041F60042C4F20002904213D058
:1047C00016E000BF44F20002C4F2010290420BD096
:1047D00044F60002C4F20102904205D044F20042C5
:1047E000C4F20102904203D1CA6823F44073134318
:1047F00023F080024B69D1F800E08C681A43026014
:10480000C46240F48062C0F828E0624504BF0969D0
:104810000163012141610169C90708BF10BD016938
:1048200021F00101016110BD806B0021C185C184AF
:10483000FEF766BE81B090F84210222921D183682C
:104840000246B3F5805F09D152F8281F52F8183C90
:10485000002B63D003685B680AE000BF52F8281F92
:1048600013B90369002BF5D003685B6803F07F037D
:104870000B70116801311160C18D01390A04C185C5
:1048800002D001B0704700BF0168CA6822F0200260
:10489000CA60CA6822F48072CA604A6922F00102C2
:1048A0004A61202180F8421000214163026B012AF5
:1048B0003CD10163016851E8031F026821F0100137
:1048C00042E80313DBB1016851E8031F026821F0DD
:1048D000100142E8031393B1016851E8031F026815
:1048E00021F0100142E803134BB1016851E8031FA6
:1048F000026821F0100142E80313002BDAD10168AD
:104900000A68D20606D5002200920A680092496819
:1049100000910099818D01B0FEF7F0BD02685268E8
:104920006FF35F2221F8022B8162A5E701B0FFF748
:1049300019BA000010B504460068D4E902C2236920
:10494000016921F4405111430161626943EA0C019C
:10495000E3691143C268194349F20C639A43114356
:10496000C1604169A26921F4407141F200431143E1
:1049700040F48062C4F201039A42416102D1FEF721
:1049800073F801E0FEF75CF8E16963681922B1F59C
:10499000004FA0FB020123D15A00DB0FFBF79CFC68
:1049A00048F21F51C5F2EB11A0FB01235A094FF643
:1049B0009C73C0F6FF7303F1805302FB03003223A4
:1049C00003EBC000A0FB01014FF4F87000EA1110E6
:1049D00000EB0210C1F3421108442168886010BD49
:1049E0009A009B0FFBF778FC48F21F51C5F2EB11C0
:1049F000A0FB01235A094FF69C73C0F6FF7302FB1C
:104A00000300322303EB0010A0FB0101F02000EAB9
:104A1000511000EB0210C1F3431108442168886073
:104A200010BD000040F25C70C2F20000FEF76ABDEB
:104A3000FEE7000070B540F21470C2F20000FEF70D
:104A4000B7FB00200021402220230026FFF754FA64
:104A50000820022102220623FFF7E6FC2020022183
:104A6000FFF742FA40F21835C2F200052A6905F153
:104A70004C0447F29241C0F600012046FBF7A4FC2B
:104A800020460621FFF774FA08200C210322042394
:104A9000A5F86860C5E91366C5E91566C5E9176636
:104AA0006E66FFF7C1FC68690C212E284FF01400D8
:104AB00039BF0622022305220123FFF7B5FC20207F
:104AC0000C21FFF711FA6A691FA12046FBF77CFC55
:104AD00020460421FFF74CFA0020A5F86800C5E93C
:104AE0001300C5E91500C5E91700686608201621FE
:104AF00004220123FFF798FCA86916212E284FF005
:104B0000140039BF0622022305220123FFF78CFC83
:104B100020201621FFF7E8F9AA6947F29241C0F672
:104B200000012046FBF750FC20460121FFF720FA48
:104B300040F21470C2F20000FEF7CAFA41F2883067
:104B4000BDE87040FDF718BD2530326464420000B6
:104B50008160026083807047F8B040F20009C4F2BF
:104B6000020940F2183009F50067C2F2000040F275
:104B7000CC613C30C2F200013A4608230590082679
:104B8000FFF7E6FFFDF700FEFFF746FD002543F6C1
:104B9000300018950695C4F202000168002241F029
:104BA00004010160016801F004010691069906956F
:104BB000016841F001010160016801F00101069105
:104BC00006990695016841F002010160006808211C
:104BD00000F00200069006983846FDF7BBFD4846F7
:104BE000022101224FF0020A4FF00108FDF7B2FD49
:104BF0004846FC2100224FF0FC0BFDF7ABFD09F508
:104C00008064204601210122FDF7A4FD204647F2E1
:104C100002410022FDF79EFDCDE9146814AE38462E
:104C20003146CDE91655FDF7BBFC48463146CDE986
:104C300014A8CDE91685FDF7B3FC48463146CDE909
:104C400014B8CDE916A5FDF7ABFC20463146CDE9F9
:104C50001488CDE91685FDF7A3FC47F2024014A99C
:104C600081E801052046314617954C46FDF798FC32
:104C700040F284600122A9F56041C2F20000C0F652
:104C800000721795057680F82050C0E90A25C0F813
:104C90001C8080F83050C0E90015C0E90255C0E919
:104CA0000488FDF703FA18B172B600BFFEE700BF33
:104CB0000A20CDE9140840F2846040F2CC66DDF8A9
:104CC0001490C2F2000014A9C2F200061695FDF776
:104CD00045F918B172B600BFFEE700BF0027A4F582
:104CE000FE3140F6FE7330461797CDE91577CDE9D2
:104CF0000677472286E88600C6E90337B761FEF7E4
:104D00002DF918B172B600BFFEE700BF4FF4805016
:104D1000149040F2CC60C2F2000014A9FEF766FACB
:104D200010B172B6FEE700BF40F2CC60C2F20000E4
:104D300006A9FEF7B7F818B172B600BFFEE700BFCC
:104D400040F214700021A4F5FC32C2F200004723A7
:104D500040F267171791CDE91511CDE90611C0E9A9
:104D60000023C0E9021701618161FEF7F7F818B16D
:104D700072B600BFFEE700BF4FF48050149040F2BF
:104D80001470C2F2000014A9FEF730FA10B172B626
:104D9000FEE700BF40F21470C2F2000006A9FEF761
:104DA00081F818B172B600BFFEE700BF40F25C7038
:104DB000A4F57041C2F2000000230C274FF4E13249
:104DC00080E80E00C0E90333C0E90573C361FEF754
:104DD0004BFE18B172B600BFFEE700BF40F2147080
:104DE000C2F20000FEF774F904200C21FFF77CF8F2
:104DF00057200121FFF7E0F86420FDF7BDFB0C20F0
:104E00000C21FFF771F845200221FFF7D5F8642047
:104E1000FDF7B2FB14200C21FFF766F84C200421AB
:104E2000FFF7CAF86420FDF7A7FB1C200C21FFF751
:104E30005BF843200521FFF7BFF86420FDF79CFBDA
:104E400024200C21FFF750F830200721FFF7B4F899
:104E50006420FDF791FB2C200C21FFF745F84D2035
:104E60000621FFF7A9F86420FDF786FB34200C210A
:104E7000FFF73AF845200621FFF79EF84FF47A70C5
:104E8000FDF77AFB0020002140222023FFF734F8B1
:104E900040F25C74C2F2000447F28841C0F600019F
:104EA000204609224FF0FF33FEF75EFF14A920468B
:104EB00031224FF47A73FEF745FE9DF8500040F220
:104EC000A82A7428C2F2000A16D19DF851002028A1
:104ED00012D140F2183BC2F2000B0BF1040047F272
:104EE0009E41CDE900B00BF12E020BF11C03C0F680
:104EF000000114A834E000BF40F25C7447F288451A
:104F0000C2F20004C0F6000514AE2046294609226C
:104F10004FF0FF33FEF728FF2046314631224FF491
:104F20007A73FEF70FFE9DF850007428EDD19DF8BE
:104F300051002028E9D140F2183BC2F2000B0BF1DE
:104F4000040047F29E4140F2A82ACDE900B00BF1DF
:104F50002E020BF11C03C0F6000114A8C2F2000AD5
:104F6000CDF808A0FBF78CFB2F208BF83000ABF8B6
:104F7000330000208BF821004846C84600F040FD71
:104F8000DBF80800A0BB06E000200021CBF80800F9
:104F9000CBF80C1060BB404600F032FD0028F3D087
:104FA0009BF848009BF84910CBF808000028CBF884
:104FB0000C10F0D01CE000BFDBE902300BF1100751
:104FC00086CF06AC8DE807000FF29C6220463221A6
:104FD0000397FBF70DFA2046FBF7AAFC82B240F2DA
:104FE0005C70C2F2000021464FF0FF33FEF7BCFEBA
:104FF000404600F005FD28B19BF848009BF8491099
:10500000CBE9020140F25C74C2F2000447F288412D
:10501000C0F60001204609224FF0FF33FEF7A4FE40
:1050200014A9204631224FF47A73FEF78BFD9DF8C8
:105030005000742803D19DF8510020281ED040F262
:105040005C7447F28845C2F20004C0F6000514AE55
:105050002046294609224FF0FF33FEF785FE204601
:10506000314631224FF47A73FEF76CFD9DF8500003
:105070007428EDD19DF851002028E9D10BF10400EE
:1050800047F29E41CDE900B00BF12E020BF11C035B
:10509000C0F6000114A8CDF808A0FBF7F1FA2F2004
:1050A0008BF83000ABF83300002040F284668BF8B8
:1050B00021000A20C2F200060DF1500800241490CD
:1050C0004FF0010A304641461794CDE915A4FCF78C
:1050D00045FF3046FDF74AF9304664216425FDF767
:1050E000C7F830B940F28460C2F20000FCF7DAFF82
:1050F000044604FB05F0C11700EB1150A5EB20306E
:1051000040F28464CBF8100000254FF00B0BC2F284
:10511000000406AE002704E048F827000137642F9A
:1051200016D020463146CDE906BACDE90855FCF740
:1051300015FF2046FDF71AF920466421FDF798F87F
:1051400000284FF00000E7D12046FCF7ABFFE3E773
:105150009FEDBD1A9FEDBD0A002000BF08EB0001C6
:1051600091ED002A91ED013AB8EEC22A32EE002A02
:1051700022EE022A32EE011AB8EEC32A91ED024A5B
:1051800032EE002A22EE022A32EE011AB8EEC42ACA
:1051900091ED035A32EE002A22EE022A32EE011A73
:1051A000B8EEC52A32EE002A91ED043A22EE022A28
:1051B00032EE011AB8EEC32A32EE002A91ED053A1A
:1051C00022EE022A32EE011AB8EEC32A32EE002A8B
:1051D00091ED063A22EE022A32EE011AB8EEC32A07
:1051E00032EE002A91ED073A22EE022A32EE011A3F
:1051F000B8EEC32A32EE002A91ED083A22EE022AD6
:1052000032EE011AB8EEC32A32EE002A91ED093AC5
:1052100022EE022A32EE011AB8EEC32A32EE002A3A
:1052200091ED0A3A22EE022A32EE011AB8EEC32AB2
:1052300032EE002A91ED0B3A22EE022A32EE011AEA
:10524000B8EEC32A32EE002A91ED0C3A22EE022A81
:1052500032EE011AB8EEC32A32EE002A91ED0D3A71
:1052600022EE022A32EE011AB8EEC32A32EE002AEA
:1052700091ED0E3A22EE022A32EE011AB8EEC32A5E
:1052800032EE002A91ED0F3A22EE022A32EE011A96
:10529000B8EEC32A32EE002A91ED103A22EE022A2D
:1052A00032EE011AB8EEC32A32EE002A91ED113A1D
:1052B00022EE022A32EE011AB8EEC32A32EE002A9A
:1052C00091ED123A22EE022A32EE011AB8EEC32A0A
:1052D00032EE002A91ED133A22EE022A32EE011A42
:1052E000B8EEC32A32EE002A91ED143A22EE022AD9
:1052F00032EE011AB8EEC32A32EE002A91ED153AC9
:1053000022EE022A32EE011AB8EEC32A32EE002A49
:1053100091ED163A22EE022A32EE011AB8EEC32AB5
:1053200032EE002A91ED173A22EE022A32EE011AED
:10533000B8EEC32A32EE002A91ED183A22EE022A84
:1053400032EE011AB8EEC32A32EE002A22EE022A09
:105350006430B0F5C87F32EE011A7FF4FFAE9FEDE6
:10536000C00A81EE000AB1EEC00A10EE100A01F088
:10537000C9FE9FEDB70B53EC102B01F08FFD01F030
:1053800075FB00EE100AB5EE400A40F2183B40F201
:10539000A82AF1EE10FAC2F2000BC2F2000A19DDDF
:1053A00001F0B0FE9FEDAC0B53EC102B01F0A4FB11
:1053B00001F05CFB00EE100A01F0D6F9B3EE041A1E
:1053C0009FEDA82A20EE010A30EE020ABDEEC00AC7
:1053D00010EE101A0C2040F2846500240690012083
:1053E000C2F20005CBF81410CDE9070406A928463F
:1053F0000994FCF7B3FD2846FCF7B8FF2846642162
:105400006425FCF735FFC84630B940F28460C2F22B
:105410000000FCF747FE044604FB05F0C11700EB53
:1054200011500013CBF81800002000214022202347
:10543000FEF762FDDAF80000013803283FF6BCAD44
:10544000DFE800F00A868A0600000000000000C5C0
:10545000FFF7F0FAB0E500BF00F0B8FB44F64340B8
:10546000C4F24F305E4640F2147546F8250F4B20CB
:10547000C2F20005B0802846FDF79AFE0020002108
:10548000402220230024FEF737FD3046FBF750FA78
:10549000A0EBC000473040080221FEF725FD06F1D1
:1054A000270738463146FBF71FFA40F20120C0F2C9
:1054B0000450069040F20760C0F20410079006A95D
:1054C0003846FEF767FD0A200C21A6F84340C6F8CF
:1054D0002740C6F82B40C6F82F40C6F83340C6F820
:1054E0003740C6F83B40C6F83F40FEF7FDFC47F2A8
:1054F000994106F10902C0F600013846FAF764FF47
:1055000038460421FEF734FD11201621A6F8434049
:10551000C6F82740C6F82B40C6F82F40C6F83340DF
:10552000C6F83740C6F83B40C6F83F40FEF7DCFC03
:10553000A6F109013846FBF7D7F90221FEF718FD5D
:105540002846FDF7C5FD41F28830FDF715F87FE7E5
:1055500000F03CFB30E500BF44F64340C4F24F305E
:105560005E4640F2147546F8250F4B20C2F2000546
:10557000B0802846FDF71CFE002000214022202399
:105580000024FEF7B9FC3046FBF7D2F9A0EBC000CF
:10559000473040080221FEF7A7FC06F127073846EE
:1055A0003146FBF7A1F940F20120C0F20450069009
:1055B00040F20760C0F20410079006A93846FEF7D3
:1055C000E9FC0A200C21A6F84340C6F82740C6F89B
:1055D0002B40C6F82F40C6F83340C6F83740C6F80F
:1055E0003B40C6F83F40FEF77FFC47F2994106F189
:1055F0000902C0F600013846FAF7E6FE38460421F3
:10560000FEF7B6FC11201621A6F84340C6F8274045
:10561000C6F82B40C6F82F40C6F83340C6F83740CE
:10562000C6F83B40C6F83F40FEF75EFCA6F1090114
:105630003846FBF759F90221FEF79AFC2846FDF798
:1056400047FD41F28830FCF797FFB5E400BF00BF8B
:105650006666666666664A3F6666666666660A40AF
:105660000000C84200003842542025642C48202500
:10567000642C204C2025642C4D2025642C512025A1
:10568000640D0A002DE9F0471821C4F2020102203E
:1056900040F2826C0860C2F2000C9CF8000040F2FC
:1056A0008232C2F2000202EBC00E4FF0000A4FF449
:1056B00080384FF0010900BF1EF90A200EEB0A04E2
:1056C000042394F9000194F9007294F9806094F92C
:1056D000805194F98042B2F1FF3FC8BF4FF480235C
:1056E0000B600823B0F1FF3FC8BF4FF400230B60ED
:1056F0001023B7F1FF3FC8BF4FF480130B60202386
:10570000B6F1FF3FC8BF4FF400130B604023B5F163
:10571000FF3FC8BF4FF480030B608023B4F1FF3F0D
:10572000C8BF4FF400030B6053064FF00403C1F8E9
:105730000084C1F8009458BF4FF480230B604306E7
:105740004FF0080358BF4FF400230B607B064FF067
:10575000100358BF4FF480130B6073064FF0200303
:1057600058BF4FF400130B606B064FF0400358BF57
:105770004FF480030B6063064FF0800358BF4FF473
:1057800000030B6093064FF00403C1F80084C1F8D6
:10579000009458BF4FF480230B6083064FF008033A
:1057A00058BF4FF400230B60BB064FF0100358BFE7
:1057B0004FF480130B60B3064FF0200358BF4FF433
:1057C00000130B60AB064FF0400358BF4FF480034B
:1057D0000B60A3064FF0800358BF4FF400030B602B
:1057E000D3064FF00403C1F80084C1F8009458BFF9
:1057F0004FF480230B60C3064FF0080358BF4FF4EB
:1058000000230B60FB064FF0100358BF4FF48013CA
:105810000B60F3064FF0200358BF4FF400130B60EA
:10582000EB064FF0400358BF4FF480030B60E306D4
:105830004FF0800358BF4FF400030B6013074FF085
:105840000403C1F80084C1F8009458BF4FF48023CA
:105850000B6003074FF0080358BF4FF400230B60A1
:105860003B074FF0100358BF4FF480130B60330712
:105870004FF0200358BF4FF400130B602B074FF07D
:10588000400358BF4FF480030B6023074FF08003A1
:1058900058BF4FF400030B6053074FF00403C1F8E7
:1058A0000084C1F8009458BF4FF480230B60430775
:1058B0004FF0080358BF4FF400230B607B074FF0F5
:1058C000100358BF4FF480130B6073074FF0200391
:1058D00058BF4FF400130B606B074FF0400358BFE5
:1058E0004FF480030B6063074FF0800358BF4FF401
:1058F00000030B6093074FF00403C1F80084C1F864
:10590000009458BF4FF480230B6083074FF00803C7
:1059100058BF4FF400230B60BB074FF0100358BF74
:105920004FF480130B60B3074FF0200358BF4FF4C0
:1059300000130B60AB074FF0400358BF4FF48003D8
:105940000B60A3074FF0800358BF4FF40003D2074A
:105950004FF004020B60C1F80084C1F8009408BF46
:105960004FF48022C0074FF008000A6008BF4FF4D0
:1059700000200860F8074FF0100008BF4FF48010B7
:105980000860F0074FF0200008BF4FF400100860D7
:10599000E8074FF0400008BF4FF480000860E007C0
:1059A0004FF080000AF1010A08BF4FF40000BAF17D
:1059B000080F0860C1F80084C1F800947FF47CAE41
:1059C0004FF4003008609CF800000F2807D847F219
:1059D000F832C0F6000252F82020C1F800244FF03F
:1059E0008052C1F800244FF480520130C1F80024E5
:1059F000C1B2103918BF01468CF80010BDE8F0871D
:105A00002DE9F0418AB004468088002600900120EC
:105A10000190206803256946049602960395FCF7D9
:105A2000BFFD2068A1880022FCF794FE1220FCF73D
:105A3000A3FD72B6A068FDF7F9FAA0880496CDE937
:105A40000006206803956D4629460296FCF7A8FDDE
:105A5000A0680068466200BF2068A188FCF774FE59
:105A6000A1680128096809D1486A80B2B0F5FA7FB7
:105A7000F2D962B600200AB0BDE8F0810020486289
:105A80002068A188FCF760FEA16809684A6A48B9E5
:105A900090B2B0F5FA7FF3D962B600200AB0BDE843
:105AA000F08100BF002048622068A188FCF74CFE0E
:105AB000A16801280A68516A08D188B2B0F5FA7F56
:105AC000F2D962B600200AB0BDE8F0814FF00008BC
:105AD00000270026C2F824802068A188FCF734FE45
